S01A000053746F7057617463685F377365676D656E742E73726563E4
S11300000C942A000C9447000C9447000C9447006D
S11300100C9447000C9447000C9447000C94470040
S11300200C9447000C9447000C9447000C94470030
S11300300C9447000C9447000C9447000C94470020
S11300400C9447000C9447000C9447000C94470010
S11300500C94470011241FBECFE5D8E0DEBFCDBF0E
S113006010E0A0E6B0E0E2E4F2E002C005900D92F8
S1130070AA36B107D9F720E0AAE6B0E001C01D9284
S1130080AF36B207E1F70E945F000C941F010C9495
S113009000008FEF8ABB84B3806484BB84B3806820
S11300A084BB089581B38B7F81BB81B3877F81BB80
S11300B081B38F7E81BB81B38F7D81BB08950E9404
S11300C049000E94520084B3806284BB90B392FBC7
S11300D0992790F990936D0080B383FB882780F96A
S11300E080936B0020B32295217020936E008111C0
S11300F027C090916A009F5F90936A0006C080B306
S113010083FB882780F980936B008823C1F385B330
S11301108F7B85BB85B3806885BBEDEC9E9FE12D0D
S11301201124E695E695E695F0E0E05AFF4F8081CC
S11301308BBB8FE99FE00197F1F700C00000C6CFA9
S113014091112EC0E0916A00EF5FE0936A0080E0B5
S113015006C080B382FB882780F980936D008823D2
S1130160C1F385B3806485BB85B38F7785BB8DEC84
S1130170E89F812D1124869586958695880F982F62
S1130180990F990F890FE81BF0E0E05AFF4F808127
S11301908BBB8FE99FE00197F1F700C0000096CF79
S11301A0211194CFE0916A00E150E0936A0080E06D
S11301B005C080B38295817080936D008823C9F354
S11301C085B3806485BB85B38F7785BB8DECE89F51
S11301D0812D1124869586958695282F220F922F9E
S11301E0990F990F920FE91BF0E0E05AFF4F9081AD
S11301F09BBB95B39F7B95BB95B3906895BBE82F4C
S1130200F0E0E05AFF4F80818BBB8FE99FE00197BC
S1130210F1F700C0000080916A00811157CF85B3C7
S1130220806285BB9FEF29E688E1915020408040A1
S1130230E1F700C0000085B38F7D85BB47CFF894FC
S1050240FFCFEA
S10D02427E0CB69ECCDAFA0EFECE56
S9030000FC
