:100000000C942A000C945B000C943F000C943F006D
:100010000C943F000C943F000C943F000C943F0064
:100020000C943F000C943F000C943F000C943F0054
:100030000C943F000C943F000C943F000C943F0044
:100040000C943F000C943F000C943F000C943F0034
:100050000C943F0011241FBECFE5D8E0DEBFCDBF1A
:1000600010E0A0E6B0E0EAECF7E002C005900D92E7
:10007000A839B107D9F70E9441000C94E3030C940E
:10008000000081E00E9412030E941E030E943E01B4
:100090000E94800065E67FEF8FEF9FEF0E94B20124
:1000A0000E949100C82F8823D9F30E9402028C2F4E
:1000B0000E945401F5CF1F920F920FB60F92112498
:1000C0002F933F934F935F936F937F938F939F9360
:1000D000AF93BF93EF93FF9380E10E940602FF91DD
:1000E000EF91BF91AF919F918F917F916F915F91B0
:1000F0004F913F912F910F900FBE0F901F90189529
:1001000061E08CE00E94090261E08DE00E9409023A
:1001100061E08EE00E94090261E08FE00E94090226
:100120000895FF920F931F93CF93DF931F92CDB744
:10013000DEB782E08983F12C0CE038C060E0802FCC
:100140000E9409021AE12BC0BE016F5F7F4F812F11
:100150000E9490028981811121C0802F90E00C972C
:10016000212F30E02A513109880F991F880F991FDC
:1001700088579F4FFC01E20FF31FF08006C0BE01BD
:100180006F5F7F4F812F0E94900289818823B9F38E
:100190008FE39CE90197F1F700C000001F5F1E315B
:1001A00098F261E0802F0E9409020F5F003130F267
:1001B0008F2D0F90DF91CF911F910F91FF90089598
:1001C000CF93C82F60E081E00E94090260E082E0E6
:1001D0000E940902C4FB662760F983E00E940902BD
:1001E000C5FB662760F984E00E940902C6FB66270A
:1001F00060F985E00E9409026C2F661F6627661F62
:1002000086E00E94090261E082E00E9409028FE913
:100210009FE00197F1F700C0000060E082E00E94DB
:1002200009026C2F617083E00E940902C1FB6627FE
:1002300060F984E00E940902C2FB662760F985E04C
:100240000E940902C3FB662760F986E00E9409024A
:1002500061E082E00E9409028FE99FE00197F1F7D7
:1002600000C0000060E082E00E9409028FE19EE48D
:100270000197F1F700C00000CF91089583E30E9439
:10028000E00082E30E94E00088E20E94E0008CE04F
:100290000E94E00081E00E94E00086E00E94E00011
:1002A00082E00E94E0000895CF93C82F61E081E0D2
:1002B0000E94090260E082E00E940902C4FB6627F6
:1002C00060F983E00E940902C5FB662760F984E0BB
:1002D0000E940902C6FB662760F985E00E940902B8
:1002E0006C2F661F6627661F86E00E94090261E088
:1002F00082E00E9409028FE99FE00197F1F700C0B8
:10030000000060E082E00E9409026C2F617083E0CF
:100310000E940902C1FB662760F984E00E9409027D
:10032000C2FB662760F985E00E940902C3FB6627CD
:1003300060F986E00E94090261E082E00E94090201
:100340008FE99FE00197F1F700C0000060E082E0D4
:100350000E9409028FE19EE40197F1F700C00000BE
:10036000CF910895CF92DF92EF92FF92CF936B01DE
:100370007C01672B682B692B19F480E30E945401E0
:10038000FF205CF48DE20E945401F094E094D0943C
:10039000C094C11CD11CE11CF11C61E012C0660FAD
:1003A000C62FCC0FCC0FC60FC701B6012AE030E034
:1003B00040E050E00E94A2036C0FC22ED32EE42E28
:1003C000F52E1C141D041E041F044CF313C08DECE9
:1003D000689FF12C1124F694F694F6949F2D990FB2
:1003E000892F880F880F890F681B862F805D0E94D8
:1003F00054016F2D623058F7CF91FF90EF90DF904E
:10040000CF90089581E00E94E00008950E94D102FB
:100410000895982F9695969596958770662309F47A
:100420003FC0613009F07BC0913099F028F09230E4
:10043000E9F0933041F108954BB321E030E0B90188
:1004400002C0660F771F8A95E2F7CB01842B8BBB26
:10045000089548B321E030E0B90102C0660F771F6C
:100460008A95E2F7CB01842B88BB089545B321E040
:1004700030E0B90102C0660F771F8A95E2F7CB0121
:10048000842B85BB089542B321E030E0B90102C05E
:10049000660F771F8A95E2F7CB01842B82BB089504
:1004A0009130A1F028F09230F9F0933059F108958D
:1004B0004BB321E030E0B90102C0660F771F8A9587
:1004C000E2F7CB01809584238BBB089548B321E0EC
:1004D00030E0B90102C0660F771F8A95E2F7CB01C1
:1004E0008095842388BB089545B321E030E0B901AD
:1004F00002C0660F771F8A95E2F7CB0180958423AF
:1005000085BB089542B321E030E0B90102C0660F17
:10051000771F8A95E2F7CB018095842382BB0895EB
:10052000982F9695969596958770913099F028F02A
:100530009230E9F0933041F1089529B330E0A901F8
:1005400002C0559547958A95E2F7CA018170FB0173
:100550008083089526B330E0A90102C055954795E0
:100560008A95E2F7CA018170FB018083089523B365
:1005700030E0A90102C0559547958A95E2F7CA0176
:100580008170FB018083089520B330E0A90102C08F
:10059000559547958A95E2F7CA018170FB018083E2
:1005A0000895982F9695969596958770913099F025
:1005B00028F09230E9F0933041F108954BB321E0F7
:1005C00030E0B90102C0660F771F8A95E2F7CB01D0
:1005D00084278BBB089548B321E030E0B90102C005
:1005E000660F771F8A95E2F7CB01842788BB0895B1
:1005F00045B321E030E0B90102C0660F771F8A954C
:10060000E2F7CB01842785BB089542B321E030E0B7
:10061000B90102C0660F771F8A95E2F7CB018427E4
:1006200082BB0895882331F0813039F48FB7806818
:100630008FBF08958FB78F778FBF089590E07EC0EA
:10064000E92FF0E0EE0FFF1FE05AFF4F8081282FC7
:10065000269526952695877031813323B9F131305F
:1006600009F06BC0213089F028F02230C9F0233026
:1006700011F163C04AB321E030E002C0220F331F02
:100680008A95E2F7242B2ABB58C047B321E030E01B
:1006900002C0220F331F8A95E2F7242B27BB4DC0DF
:1006A00044B321E030E002C0220F331F8A95E2F705
:1006B000242B24BB42C041B321E030E002C0220F12
:1006C000331F8A95E2F7242B21BB37C0213091F0EC
:1006D00028F02230D9F0233029F12FC04AB321E08D
:1006E00030E002C0220F331F8A95E2F720952423C1
:1006F0002ABB23C047B321E030E002C0220F331FE2
:100700008A95E2F72095242327BB17C044B321E044
:1007100030E002C0220F331F8A95E2F72095242390
:1007200024BB0BC041B321E030E002C0220F331FD5
:100730008A95E2F72095242321BB9F5F943108F42A
:100740007FCF0895052E97FB1EF400940E94B903F5
:1007500057FD07D00E94C10307FC03D04EF40C9450
:10076000B90350954095309521953F4F4F4F5F4FBE
:10077000089590958095709561957F4F8F4F9F4F0D
:100780000895A1E21A2EAA1BBB1BFD010DC0AA1FD2
:10079000BB1FEE1FFF1FA217B307E407F50720F0EA
:1007A000A21BB30BE40BF50B661F771F881F991F65
:1007B0001A9469F760957095809590959B01AC01AE
:0A07C000BD01CF010895F894FFCFAA
:1007CA000101020103010401050106011A001B00CF
:1007DA001C001D000C010D010E010F01000000009C
:1007EA0000000000000000003132332B3435362D72
:0807FA003738392A3D30632F26
:00000001FF
