S00C0000434F54532E73726563DF
S11300000C942A000C940C010C9447000C944700A7
S11300100C9447000C9447000C9447000C94CB01BB
S11300200C9447000C9447000C9447000C947701FF
S11300300C9447000C9447000C9447000C94470020
S11300400C9435010C9447000C9447000C94470021
S11300500C94470011241FBECFE5D8E0DEBFCDBF0E
S113006010E0A0E6B0E0E0E5F5E002C005900D92F6
S1130070A838B107D9F720E0A8E8B0E001C01D9284
S1130080A43CB207E1F70E944D000C94A6020C9424
S1130090000080E10E945C00089569E470E086E05D
S11300A00E9403010E94130281E00E94F7000E9453
S11300B0A0000E94C500FFCF0E945F000895982F02
S11300C09695969596958770913099F028F0923090
S11300D0E9F0933041F108954BB321E030E0B901E8
S11300E002C0660F771F8A95E2F7CB0184278BBB8A
S11300F0089548B321E030E0B90102C0660F771FCC
S11301008A95E2F7CB01842788BB089545B321E0A3
S113011030E0B90102C0660F771F8A95E2F7CB0180
S1130120842785BB089542B321E030E0B90102C0C1
S1130130660F771F8A95E2F7CB01842782BB089567
S113014083B7877F83BF83B78F7B83BF89B7816082
S113015089BF83B7856083BF8FB58E7F8FBD8FB511
S11301608D7F8FBD8EB588608EBD8EB58F7E8EBD22
S113017089B7806189BF89B7886089BF8EB585607A
S11301808EBD85B5856085BD08958DE390E0A0E0C2
S1130190B0E08093C0009093C100A093C200B093DC
S11301A0C30087EF90E0A0E0B0E08093BC009093A0
S11301B0BD00A093BE00B093BF0087EF82BF8091C3
S11301C0C0009091C100A091C200B091C3000196FB
S11301D0A11DB11D8093C0009093C100A093C200E3
S11301E0B093C30088E09DE39BBD8ABD0895882336
S11301F031F0813039F48FB780688FBF08958FB79D
S11302008F778FBF0895E82FF0E0EE0FFF1FE057C0
S1130210FF4F7183608308951F920F920FB60F9260
S113022011242F933F934F935F936F937F938F93F7
S11302309F93AF93BF93EF93FF93E0919000F0915E
S11302409100309709F00995FF91EF91BF91AF911B
S11302509F918F917F916F915F914F913F912F91DA
S11302600F900FBE0F901F9018951F920F920FB60C
S11302700F9211242F933F934F935F936F937F9328
S11302808F939F93AF93BF93EF93FF9324B135B1B3
S1130290A8E8B3E10E949702DC01CB01072E7AE0C3
S11302A0B695A795979587957A95D1F7702D8093F4
S11302B0B8009093B900A093BA00B093BB00E0914A
S11302C0AE00F091AF00309709F00995FF91EF91DE
S11302D0BF91AF919F918F917F916F915F914F915A
S11302E03F912F910F900FBE0F901F9018951F9262
S11302F00F920FB60F9211242F933F934F935F9356
S11303006F937F938F939F93AF93BF93EF93FF93D9
S113031080918C0090918D00A0918E00B0918F00FF
S11303200196A11DB11D80938C0090938D00A09324
S11303308E00B0938F004091C0005091C100609135
S1130340C2007091C30084179507A607B70791F4FC
S1130350E091A400F091A500309709F0099510925E
S11303608C0010928D0010928E0010928F0080915C
S1130370BC0082BFFF91EF91BF91AF919F918F918C
S11303807F916F915F914F913F912F910F900FBE8D
S11303900F901F9018951F920F920FB60F92112471
S11303A02F933F934F935F936F937F938F939F9379
S11303B0AF93BF93EF93FF9380918800909189004E
S11303C0A0918A00B0918B000196A11DB11D80936C
S11303D0880090938900A0938A00B0938B000197C2
S11303E0A105B10579F4E0919C00F0919D0030974E
S11303F009F00995109288001092890010928A00E1
S113040010928B00FF91EF91BF91AF919F918F91CB
S11304107F916F915F914F913F912F910F900FBEFC
S11304200F901F90189590E07EC0E92FF0E0EE0F3A
S1130430FF1FE05AFF4F8081282F26952695269589
S1130440877031813323B9F1313009F06BC0213029
S113045089F028F02230C9F0233011F163C04AB387
S113046021E030E002C0220F331F8A95E2F7242BEB
S11304702ABB58C047B321E030E002C0220F331F2B
S11304808A95E2F7242B27BB4DC044B321E030E02A
S113049002C0220F331F8A95E2F7242B24BB42C0EB
S11304A041B321E030E002C0220F331F8A95E2F706
S11304B0242B21BB37C0213091F028F02230D9F011
S11304C0233029F12FC04AB321E030E002C0220FCB
S11304D0331F8A95E2F7209524232ABB23C047B310
S11304E021E030E002C0220F331F8A95E2F7209505
S11304F0242327BB17C044B321E030E002C0220FFD
S1130500331F8A95E2F72095242324BB0BC041B303
S113051021E030E002C0220F331F8A95E2F72095D4
S1130520242321BB9F5F943108F47FCF0895A29FB9
S1130530B001B39FC001A39F700D811D1124911DB3
S1130540B29F700D811D1124911D0895F894FFCF61
S11305500101020103010401050106011A001B0047
S11305601C001D000C010D010E010F011001000003
S10B057000000000000000007F
S9030000FC
