S00C0000434F54532E73726563DF
S11300000C942A000C943F000C943F000C943F0085
S11300100C943F000C943F000C943F000C943F0060
S11300200C943F000C943F000C943F000C943F0050
S11300300C943F000C943F000C943F000C943F0040
S11300400C943F000C943F000C943F000C943F0030
S11300500C943F0011241FBECFE5D8E0DEBFCDBF16
S113006010E0A0E6B0E0E0E1F1E002C005900D92FE
S1130070A437B107D9F70E9480000C9486000C9431
S113008000008FEF8ABB84B3806484BB84B3806830
S113009084BB089595B3906495BB95B39F7795BB46
S11300A0EDEC8E9FE12D1124E695E695E6952E2F35
S11300B0220F922F990F990F920F891BA82FB0E04E
S11300C0AA0FBB1FA05ABF4F8C918BBB8FE99FE037
S11300D00197F1F700C0000085B38F7B85BB85B322
S11300E0806885BBF0E0EE0FFF1FE05AFF4F808170
S11300F08BBB8FE99FE00197F1F700C000000895E2
S11301000E9441008AE30E944A00FCCFF894FFCF8A
S11301107E000C00B6009E00CC00DA00FA000E004F
S1070120FE00CE000B
S9030000FC
